:020000000728CF
:0800080016208B100900831281
:100010008501860183169101011703308600831242
:100020008B170B16C03086003120152885158618D1
:100030001D20861C2720051108008C1838280C1953
:100040003F288C1946280C1A3128051108000C1A73
:100050003F288C1938280C1931288C18462805118E
:100060000800E83086000C128C140C1105110800F1
:10007000E43086008C100C158C1105110800D4306A
:1000800086000C118C150C1205110800D830860062
:0A0090008C110C168C1005110800ED
:00000001FF
