:10000000831285018601831691010330850000303B
:1000100086008312033086002A28851810280D28B0
:10002000851505181628202885110D288C183128CB
:100030000C1938288C193F280C1A2A2885110D28EC
:100040000C1A38288C1931280C192A288C183F28AA
:1000500085110D282B3086000C128C140C11851183
:100060000D28273086008C100C158C1185110D2859
:10007000173086000C118C150C1285110D281B30C1
:0C00800086008C110C168C1085110D28C8
:00000001FF
