:020000000728CF
:0800080015208B100900831282
:1000100085018601831601170330860083128B1732
:100020000B16C03086002C20142886181A20861C37
:10003000232008008C1832280C1938288C193E28E7
:100040000C1A2C2808000C1A38288C1932280C1984
:100050002C288C183E280800E83086000C128C14DE
:100060000C110800E43086008C100C158C1108006F
:10007000D43086000C118C150C120800D830860084
:080080008C110C168C10080015
:00000001FF
